{
  "contractName": "Betting",
  "abi": [
    {
      "inputs": [],
      "stateMutability": "nonpayable",
      "type": "constructor"
    },
    {
      "anonymous": false,
      "inputs": [
        {
          "indexed": false,
          "internalType": "uint256",
          "name": "matchId",
          "type": "uint256"
        },
        {
          "indexed": false,
          "internalType": "uint256",
          "name": "amount",
          "type": "uint256"
        }
      ],
      "name": "BetMade",
      "type": "event"
    },
    {
      "anonymous": false,
      "inputs": [
        {
          "indexed": false,
          "internalType": "uint256",
          "name": "matchId",
          "type": "uint256"
        }
      ],
      "name": "PayedWinnings",
      "type": "event"
    },
    {
      "inputs": [
        {
          "internalType": "uint256",
          "name": "",
          "type": "uint256"
        },
        {
          "internalType": "uint256",
          "name": "",
          "type": "uint256"
        }
      ],
      "name": "matchBets",
      "outputs": [
        {
          "internalType": "uint256",
          "name": "matchId",
          "type": "uint256"
        },
        {
          "internalType": "uint256",
          "name": "bettingType",
          "type": "uint256"
        },
        {
          "internalType": "uint256",
          "name": "oddForWinning",
          "type": "uint256"
        },
        {
          "internalType": "uint256",
          "name": "initialAmount",
          "type": "uint256"
        },
        {
          "internalType": "address payable",
          "name": "user",
          "type": "address"
        }
      ],
      "stateMutability": "view",
      "type": "function",
      "constant": true
    },
    {
      "inputs": [
        {
          "internalType": "uint256",
          "name": "",
          "type": "uint256"
        }
      ],
      "name": "matchPayedOut",
      "outputs": [
        {
          "internalType": "bool",
          "name": "",
          "type": "bool"
        }
      ],
      "stateMutability": "view",
      "type": "function",
      "constant": true
    },
    {
      "inputs": [],
      "name": "owner",
      "outputs": [
        {
          "internalType": "address",
          "name": "",
          "type": "address"
        }
      ],
      "stateMutability": "view",
      "type": "function",
      "constant": true
    },
    {
      "inputs": [
        {
          "internalType": "uint256",
          "name": "matchId",
          "type": "uint256"
        },
        {
          "internalType": "uint256",
          "name": "bettingType",
          "type": "uint256"
        },
        {
          "internalType": "uint256",
          "name": "oddForWinning",
          "type": "uint256"
        },
        {
          "internalType": "uint256",
          "name": "matchGameDay",
          "type": "uint256"
        }
      ],
      "name": "placeBet",
      "outputs": [],
      "stateMutability": "payable",
      "type": "function",
      "payable": true
    },
    {
      "inputs": [
        {
          "internalType": "uint256",
          "name": "matchId",
          "type": "uint256"
        },
        {
          "internalType": "uint256",
          "name": "winningType",
          "type": "uint256"
        }
      ],
      "name": "payWinningBets",
      "outputs": [],
      "stateMutability": "nonpayable",
      "type": "function"
    },
    {
      "inputs": [],
      "name": "deposit",
      "outputs": [],
      "stateMutability": "payable",
      "type": "function",
      "payable": true
    },
    {
      "inputs": [],
      "name": "getBalance",
      "outputs": [
        {
          "internalType": "uint256",
          "name": "amount",
          "type": "uint256"
        }
      ],
      "stateMutability": "view",
      "type": "function",
      "constant": true
    }
  ],
  "bytecode": "0x608060405234801561001057600080fd5b50336000806101000a81548173ffffffffffffffffffffffffffffffffffffffff021916908373ffffffffffffffffffffffffffffffffffffffff1602179055506110f5806100606000396000f3fe6080604052600436106100705760003560e01c80638da5cb5b1161004e5780638da5cb5b1461011e578063a427604f14610149578063d0e30db014610172578063fde6adb11461017c57610070565b8063036e1df01461007557806312065fe0146100b257806334dddef9146100dd575b600080fd5b34801561008157600080fd5b5061009c60048036038101906100979190610982565b610198565b6040516100a99190610d45565b60405180910390f35b3480156100be57600080fd5b506100c76101b8565b6040516100d49190610e40565b60405180910390f35b3480156100e957600080fd5b5061010460048036038101906100ff91906109ab565b6101c0565b604051610115959493929190610e84565b60405180910390f35b34801561012a57600080fd5b50610133610233565b6040516101409190610d2a565b60405180910390f35b34801561015557600080fd5b50610170600480360381019061016b91906109ab565b610257565b005b61017a610665565b005b610196600480360381019061019191906109e7565b6106f5565b005b60026020528060005260406000206000915054906101000a900460ff1681565b600047905090565b600160205281600052604060002081815481106101dc57600080fd5b9060005260206000209060050201600091509150508060000154908060010154908060020154908060030154908060040160009054906101000a900473ffffffffffffffffffffffffffffffffffffffff16905085565b60008054906101000a900473ffffffffffffffffffffffffffffffffffffffff1681565b60008054906101000a900473ffffffffffffffffffffffffffffffffffffffff1673ffffffffffffffffffffffffffffffffffffffff163373ffffffffffffffffffffffffffffffffffffffff16146102e5576040517f08c379a00000000000000000000000000000000000000000000000000000000081526004016102dc90610d60565b60405180910390fd5b600015156002600084815260200190815260200160002060009054906101000a900460ff1615151461034c576040517f08c379a000000000000000000000000000000000000000000000000000000000815260040161034390610e00565b60405180910390fd5b600060016000848152602001908152602001600020805480602002602001604051908101604052809291908181526020016000905b8282101561043157838290600052602060002090600502016040518060a0016040529081600082015481526020016001820154815260200160028201548152602001600382015481526020016004820160009054906101000a900473ffffffffffffffffffffffffffffffffffffffff1673ffffffffffffffffffffffffffffffffffffffff1673ffffffffffffffffffffffffffffffffffffffff168152505081526020019060010190610381565b50505050905060005b81518110156105fc578282828151811061047d577f4e487b7100000000000000000000000000000000000000000000000000000000600052603260045260246000fd5b60200260200101516020015114156105e957600060648383815181106104cc577f4e487b7100000000000000000000000000000000000000000000000000000000600052603260045260246000fd5b602002602001015160600151848481518110610511577f4e487b7100000000000000000000000000000000000000000000000000000000600052603260045260246000fd5b6020026020010151604001516105279190610f19565b6105319190610ee8565b9050600060646005836105449190610f19565b61054e9190610ee8565b9050838381518110610589577f4e487b7100000000000000000000000000000000000000000000000000000000600052603260045260246000fd5b60200260200101516080015173ffffffffffffffffffffffffffffffffffffffff166108fc82846105ba9190610f73565b9081150290604051600060405180830381858888f193505050501580156105e5573d6000803e3d6000fd5b5050505b80806105f490611001565b91505061043a565b5060016002600085815260200190815260200160002060006101000a81548160ff0219169083151502179055507f3dab939adf7031620a8189280bf331895a8859552fb7542e4c5e0283994f464c836040516106589190610e40565b60405180910390a1505050565b60008054906101000a900473ffffffffffffffffffffffffffffffffffffffff1673ffffffffffffffffffffffffffffffffffffffff163373ffffffffffffffffffffffffffffffffffffffff16146106f3576040517f08c379a00000000000000000000000000000000000000000000000000000000081526004016106ea90610dc0565b60405180910390fd5b565b6000341415610739576040517f08c379a000000000000000000000000000000000000000000000000000000000815260040161073090610e20565b60405180910390fd5b80613840426107489190610f73565b10610788576040517f08c379a000000000000000000000000000000000000000000000000000000000815260040161077f90610de0565b60405180910390fd5b6000831180156107985750600483105b6107d7576040517f08c379a00000000000000000000000000000000000000000000000000000000081526004016107ce90610d80565b60405180910390fd5b600015156002600086815260200190815260200160002060009054906101000a900460ff1615151461083e576040517f08c379a000000000000000000000000000000000000000000000000000000000815260040161083590610da0565b60405180910390fd5b60006040518060a001604052808681526020018581526020018481526020013481526020013373ffffffffffffffffffffffffffffffffffffffff168152509050600160008681526020019081526020016000208190806001815401808255809150506001900390600052602060002090600502016000909190919091506000820151816000015560208201518160010155604082015181600201556060820151816003015560808201518160040160006101000a81548173ffffffffffffffffffffffffffffffffffffffff021916908373ffffffffffffffffffffffffffffffffffffffff16021790555050507f28d81d852791096da3eb29e09e6a488bb0c92df6f307d77d3a61ed00a66aace6853460405161095e929190610e5b565b60405180910390a15050505050565b60008135905061097c816110a8565b92915050565b60006020828403121561099457600080fd5b60006109a28482850161096d565b91505092915050565b600080604083850312156109be57600080fd5b60006109cc8582860161096d565b92505060206109dd8582860161096d565b9150509250929050565b600080600080608085870312156109fd57600080fd5b6000610a0b8782880161096d565b9450506020610a1c8782880161096d565b9350506040610a2d8782880161096d565b9250506060610a3e8782880161096d565b91505092959194509250565b610a5381610fb9565b82525050565b610a6281610fa7565b82525050565b610a7181610fcb565b82525050565b6000610a84604083610ed7565b91507f42657474696e673a3a204f6e6c79207468652062657474696e672061646d696e60008301527f6973747261746f722063616e2063616c6c20746869732066756e6374696f6e216020830152604082019050919050565b6000610aea601a83610ed7565b91507f42657474696e673a3a206d61746368496420696e76616c6964210000000000006000830152602082019050919050565b6000610b2a602b83610ed7565b91507f42657474696e673a3a2054686973206d61746368206973206e6f74206163746960008301527f766520616e796d6f7265210000000000000000000000000000000000000000006020830152604082019050919050565b6000610b90603983610ed7565b91507f42657474696e673a20596f752063616e206f6e6c79206465706f73697420657460008301527f68657220696620796f752061726520746865206f776e657221000000000000006020830152604082019050919050565b6000610bf6603183610ed7565b91507f42657474696e673a3a2054686520646561646c696e6520666f7220746869732060008301527f6d617463682068617320706173736564210000000000000000000000000000006020830152604082019050919050565b6000610c5c603083610ed7565b91507f42657474696e673a3a2054686973206d617463682068617320616c726561647960008301527f206265656e207061796564206f757421000000000000000000000000000000006020830152604082019050919050565b6000610cc2602983610ed7565b91507f42657474696e673a3a20596f75206d75737420626574206d6f7265207468616e60008301527f20302065746865722100000000000000000000000000000000000000000000006020830152604082019050919050565b610d2481610ff7565b82525050565b6000602082019050610d3f6000830184610a59565b92915050565b6000602082019050610d5a6000830184610a68565b92915050565b60006020820190508181036000830152610d7981610a77565b9050919050565b60006020820190508181036000830152610d9981610add565b9050919050565b60006020820190508181036000830152610db981610b1d565b9050919050565b60006020820190508181036000830152610dd981610b83565b9050919050565b60006020820190508181036000830152610df981610be9565b9050919050565b60006020820190508181036000830152610e1981610c4f565b9050919050565b60006020820190508181036000830152610e3981610cb5565b9050919050565b6000602082019050610e556000830184610d1b565b92915050565b6000604082019050610e706000830185610d1b565b610e7d6020830184610d1b565b9392505050565b600060a082019050610e996000830188610d1b565b610ea66020830187610d1b565b610eb36040830186610d1b565b610ec06060830185610d1b565b610ecd6080830184610a4a565b9695505050505050565b600082825260208201905092915050565b6000610ef382610ff7565b9150610efe83610ff7565b925082610f0e57610f0d611079565b5b828204905092915050565b6000610f2482610ff7565b9150610f2f83610ff7565b9250817fffffffffffffffffffffffffffffffffffffffffffffffffffffffffffffffff0483118215151615610f6857610f6761104a565b5b828202905092915050565b6000610f7e82610ff7565b9150610f8983610ff7565b925082821015610f9c57610f9b61104a565b5b828203905092915050565b6000610fb282610fd7565b9050919050565b6000610fc482610fd7565b9050919050565b60008115159050919050565b600073ffffffffffffffffffffffffffffffffffffffff82169050919050565b6000819050919050565b600061100c82610ff7565b91507fffffffffffffffffffffffffffffffffffffffffffffffffffffffffffffffff82141561103f5761103e61104a565b5b600182019050919050565b7f4e487b7100000000000000000000000000000000000000000000000000000000600052601160045260246000fd5b7f4e487b7100000000000000000000000000000000000000000000000000000000600052601260045260246000fd5b6110b181610ff7565b81146110bc57600080fd5b5056fea2646970667358221220426dc3d6f42cc8947375b3879dc61808533954ada14de5323eb5f562fa85058064736f6c63430008000033",
  "immutableReferences": {},
  "source": "pragma solidity 0.8.0;\r\n\r\nimport \"./interfaces/IBetting.sol\";\r\n\r\ncontract Betting is IBetting{\r\n\r\n    address public owner;\r\n\r\n    mapping(uint => Bet[]) public matchBets;\r\n    mapping(uint => bool) public matchPayedOut;\r\n\r\n    constructor(){\r\n        owner = msg.sender;\r\n    }\r\n\r\n    function placeBet(uint matchId, uint bettingType, uint oddForWinning, uint matchGameDay) external payable override{\r\n        require(msg.value != 0, \"Betting:: You must bet more than 0 ether!\");\r\n        require(block.timestamp - 14400 < matchGameDay, \"Betting:: The deadline for this match has passed!\");\r\n        require(bettingType> 0 && bettingType<4, \"Betting:: matchId invalid!\");\r\n        require(matchPayedOut[matchId] == false, \"Betting:: This match is not active anymore!\");\r\n        // require(address(this).balance > 0, \"Betting:: There is no ether ready for payout\");\r\n\r\n        Bet memory newBet = Bet(matchId, bettingType, oddForWinning, msg.value, payable(msg.sender));\r\n\r\n        matchBets[matchId].push(newBet);\r\n\r\n        emit BetMade(matchId, msg.value);\r\n    }\r\n\r\n    function payWinningBets(uint matchId, uint winningType) external override{\r\n        require(msg.sender == owner, \"Betting:: Only the betting administrator can call this function!\");\r\n        require(matchPayedOut[matchId] == false, \"Betting:: This match has already been payed out!\");\r\n        Bet[] memory bets = matchBets[matchId];\r\n        for(uint i =0;i<bets.length;i++){\r\n            if(bets[i].bettingType == winningType){\r\n                uint beforeCommission = (bets[i].oddForWinning * bets[i].initialAmount)/100;\r\n                uint commission = (beforeCommission * 5) / 100;\r\n                (bets[i].user).transfer(beforeCommission - commission);\r\n            }\r\n        }\r\n\r\n        matchPayedOut[matchId] = true;\r\n\r\n        emit PayedWinnings(matchId);\r\n    }\r\n\r\n    function deposit() external payable override{\r\n        require(msg.sender == owner, \"Betting: You can only deposit ether if you are the owner!\");\r\n    }\r\n\r\n    function getBalance() external view override returns(uint amount){\r\n        return address(this).balance;\r\n    }\r\n\r\n}",
  "sourcePath": "D:/dapps/Decentralized Betting System/client/src/contracts/Betting.sol",
  "compiler": {
    "name": "solc",
    "version": "0.8.0+commit.c7dfd78e.Emscripten.clang"
  },
  "schemaVersion": "3.4.1",
  "updatedAt": "2021-09-24T19:22:02.947Z",
  "networkType": "ethereum",
  "devdoc": {
    "kind": "dev",
    "methods": {},
    "version": 1
  },
  "userdoc": {
    "kind": "user",
    "methods": {},
    "version": 1
  }
}